:100000000C942A000C9447000C9447000C94470071
:100010000C9447000C9447000C9447000C94470044
:100020000C9447000C9447000C9447000C94470034
:100030000C9447000C9447000C9447000C94470024
:100040000C9447000C9447000C9447000C94470014
:100050000C94470011241FBECFE5D8E0DEBFCDBF12
:1000600010E0A0E6B0E0E0E7FCE002C005900D92F1
:10007000A238B107D9F720E0A2E8B0E001C01D9294
:10008000A438B207E1F70E940B030C9436060C94D7
:10009000000041E065E082E00E94B20341E064E0DC
:1000A00082E00E94B20341E063E082E00E94B2037A
:1000B00041E062E082E00E94B20340E067E083E05A
:1000C0000E94B20340E066E083E00E94B20340E099
:1000D00065E083E00E94B20340E063E083E00E94B9
:1000E000B2038FEF82BB089582B3887E82BB00008B
:1000F00080B3887E80938200883EB1F787E893E1E1
:100100000197F1F700C0000080B3887E80938200E1
:10011000883EA1F38FE097E20197F1F700C000005D
:1001200080B3887E80938200883E41F388E385BB5C
:10013000000080B3887E80938200883E21F0109278
:10014000830015BA2AC084E385BB000080B3887E93
:1001500080938200883E29F081E08093830015BA65
:100160001CC08CE285BB000080B3887E8093820037
:10017000883E29F082E08093830015BA0EC08CE19E
:1001800085BB000080B3887E80938200883E09F49E
:10019000ABCF83E08093830015BA809182008836CC
:1001A00059F4E0918300F0E0EE0FFF1FEE0FFF1F08
:1001B000E05AFF4F80810895883A59F4E091830016
:1001C000F0E0EE0FFF1FEE0FFF1FE05AFF4F81819F
:1001D0000895883C59F4E0918300F0E0EE0FFF1F92
:1001E000EE0FFF1FE05AFF4F82810895E0918300D8
:1001F000F0E0EE0FFF1FEE0FFF1FE05AFF4F83816D
:100200000895CF93C82F40E063E080E00E9425046A
:1002100089EF90E00197F1F700C0000041E062E053
:1002200080E00E94250489EF90E00197F1F700C07B
:1002300000004C2F407150E05595479555954795D6
:10024000559547955595479560E081E00E942504B6
:100250004C2F407250E055954795559547955595CB
:100260004795559547955595479561E081E00E94E2
:1002700025044C2F407450E0042E452F000C441FE1
:10028000550B000C441F551F62E081E00E942504BD
:100290004C2F441F4427441F64E081E00E94250442
:1002A00089EF90E00197F1F700C0000040E062E0C4
:1002B00080E00E94250489EF90E00197F1F700C0EB
:1002C000000041E062E080E00E94250489EF90E0B8
:1002D0000197F1F700C000004C2F417060E081E011
:1002E0000E9425044C2F427050E05595479561E0DF
:1002F00081E00E9425044C2F447050E055954795AD
:100300005595479562E081E00E942504C8704C2F06
:1003100050E055954795559547955595479564E017
:1003200081E00E94250489EF90E00197F1F700C079
:10033000000040E062E080E00E94250489EF90E048
:100340000197F1F700C00000CF91089541E063E00C
:1003500080E00E94B20341E062E080E00E94B203CC
:1003600087E893E10197F1F700C0000041E060E009
:1003700081E00E94B20341E061E081E00E94B203AB
:1003800041E062E081E00E94B20341E064E081E08C
:100390000E94B20383E30E94010182E30E940101F3
:1003A00088E20E9401018CE00E94010181E00E942C
:1003B00001010895CF93C82F41E063E080E00E94DF
:1003C000250489EF90E00197F1F700C0000041E0BB
:1003D00062E080E00E94250489EF90E00197F1F748
:1003E00000C000004C2F407150E055954795559541
:1003F0004795559547955595479560E081E00E9452
:1004000025044C2F407250E05595479555954795DA
:1004100055954795559547955595479561E081E0E8
:100420000E9425044C2F407450E0042E452F000CF0
:10043000441F550B000C441F551F62E081E00E94D1
:1004400025044C2F441F4427441F64E081E00E9490
:10045000250489EF90E00197F1F700C0000040E02B
:1004600062E080E00E94250489EF90E00197F1F7B7
:1004700000C0000041E062E080E00E94250489EFB6
:1004800090E00197F1F700C000004C2F417060E050
:1004900081E00E9425044C2F427050E0559547950D
:1004A00061E081E00E9425044C2F447050E0559596
:1004B00047955595479562E081E00E942504C870F4
:1004C0004C2F50E05595479555954795559547952F
:1004D00064E081E00E94250489EF90E00197F1F744
:1004E00000C0000040E062E080E00E94250489EF47
:1004F00090E00197F1F700C00000CF9108950F93AD
:100500001F93CF938C01C0E003C00E94DA01CF5F3C
:10051000F801EC0FF11D80818111F7CFCF911F9170
:100520000F910895813039F058F0823031F08330E6
:1005300031F060E005C0605C03C0605F01C0605BDB
:10054000862F80680E9401010895CF93DF93CDB775
:10055000DEB760970FB6F894DEBF0FBECDBF4AE09E
:1005600050E0BE016F5F7F4F0E94F605CE010196FD
:100570000E947F0260960FB6F894DEBF0FBECDBF1B
:10058000DF91CF910895CF93DF93EB01DD23A4F4A6
:10059000BC01990F880B990B0E9442059B01AC018D
:1005A00060E070E080E89FE30E9498040E940A05E2
:1005B000CB01D195C195D10941E050E025C09E0104
:1005C00021703078332334F4215031092E6F3F6F7E
:1005D0002F5F3F4F2130310541F49A01289FA00140
:1005E000299F500D389F500D11249C01229FC0015E
:1005F000239F900D900D11249E01DD2314F42F5F95
:100600003F4FE901D595C7951C161D06C4F2CA01D6
:10061000DF91CF9108950E94A6010E94490061E0F8
:1006200080E00E9492028FE19EE40197F1F700C002
:100630000000E12CF12C00E010E0D0E0A12CB12C66
:10064000C12CD12C0E947400C82F803219F481E093
:100650000E940101CB3231F0CD3221F0CA3211F0CB
:10066000CF3221F48C2F0E94DA01DC2FD11121C06E
:1006700080ED8C0F8A3008F03FC00115110571F034
:1006800061E070E08AE090E00E94C3029601289F3A
:100690006001299FD00C389FD00C11248C2F90E042
:1006A000C097C80ED91E0F5F1F4F8C2F0E94DA0112
:1006B00023C080ED8C0F8A30F8F4E114F10489F046
:1006C0000115110571F061E070E08AE090E00E9490
:1006D000C3029501289F5001299FB00C389FB00C90
:1006E00011248C2F90E0C097A80EB91E3FEFE31A9B
:1006F000F30A8C2F0E94DA01CD3309F0A3CF8C2F9F
:100700000E94DA01DB3249F018F4DA3209F191CFB4
:10071000DD3249F0DF3269F08CCFC6018A0D9B1DB6
:100720000E94A50286CFC6018A199B090E94A502D4
:1007300080CFC601B5010E94CE05AB2829F480E721
:1007400090E00E947F0275CFCB010E94A50271CF7D
:10075000CA9CC001CB9C900DDA9C900D11240E9484
:10076000A50267CF683008F06FC0843008F06CC015
:10077000813001F130F08230B1F1833009F44CC0A6
:100780000895413059F42AB381E090E002C0880F07
:10079000991F6A95E2F7822B8ABB08952AB381E0FC
:1007A00090E002C0880F991F6A95E2F78095822336
:1007B0008ABB0895413059F427B381E090E002C02C
:1007C000880F991F6A95E2F7822B87BB089527B39C
:1007D00081E090E002C0880F991F6A95E2F780954A
:1007E000822387BB0895413059F424B381E090E01F
:1007F00002C0880F991F6A95E2F7822B84BB089587
:1008000024B381E090E002C0880F991F6A95E2F757
:100810008095822384BB0895413059F421B381E04F
:1008200090E002C0880F991F6A95E2F7822B81BB86
:10083000089521B381E090E002C0880F991F6A9566
:10084000E2F78095822381BB0895683008F06FC07D
:10085000843008F06CC0813001F130F08230B1F1A9
:10086000833009F44CC00895413059F42BB381E032
:1008700090E002C0880F991F6A95E2F7822B8BBB2C
:1008800008952BB381E090E002C0880F991F6A950C
:10089000E2F7809582238BBB0895413059F428B349
:1008A00081E090E002C0880F991F6A95E2F7822BE1
:1008B00088BB089528B381E090E002C0880F991F9B
:1008C0006A95E2F78095822388BB0895413059F4F8
:1008D00025B381E090E002C0880F991F6A95E2F786
:1008E000822B85BB089525B381E090E002C0880F7C
:1008F000991F6A95E2F78095822385BB0895413060
:1009000059F422B381E090E002C0880F991F6A95E4
:10091000E2F7822B82BB089522B381E090E002C00F
:10092000880F991F6A95E2F78095822382BB08950C
:100930000E94AC040C9494050E948D0558F00E940E
:10094000860540F029F45F3F29F00C947D05511194
:100950000C94C8050C9483050E94A50568F399239F
:10096000B1F3552391F3951B550BBB27AA276217AB
:100970007307840738F09F5F5F4F220F331F441FB8
:10098000AA1FA9F335D00E2E3AF0E0E832D09150EC
:100990005040E695001CCAF72BD0FE2F29D0660FD9
:1009A000771F881FBB1F261737074807AB07B0E81C
:1009B00009F0BB0B802DBF01FF2793585F4F3AF022
:1009C0009E3F510578F00C947D050C94C8055F3F5F
:1009D000E4F3983ED4F3869577956795B795F795A8
:1009E0009F5FC9F7880F911D9695879597F9089590
:1009F000E1E0660F771F881FBB1F6217730784072C
:100A0000BA0720F0621B730B840BBA0BEE1F88F73A
:100A1000E09508950E9411056894B1110C94C805E1
:100A200008950E94AD0588F09F5798F0B92F992737
:100A3000B751B0F0E1F0660F771F881F991F1AF0C9
:100A4000BA95C9F714C0B13091F00E94C705B1E062
:100A500008950C94C705672F782F8827B85F39F061
:100A6000B93FCCF3869577956795B395D9F73EF462
:100A700090958095709561957F4F8F4F9F4F08950A
:100A8000E89409C097FB3EF4909580957095619528
:100A90007F4F8F4F9F4F9923A9F0F92F96E9BB27DE
:100AA0009395F695879577956795B795F111F8CF5A
:100AB000FAF4BB0F11F460FF1BC06F5F7F4F8F4FC5
:100AC0009F4F16C0882311F096E911C0772321F0BB
:100AD0009EE8872F762F05C0662371F096E8862F53
:100AE00070E060E02AF09A95660F771F881FDAF7AA
:100AF000880F9695879597F9089597F99F6780E8ED
:100B000070E060E008959FEF80EC089500240A945F
:100B10001616170618060906089500240A941216D8
:100B20001306140605060895092E0394000C11F40B
:100B3000882352F0BB0F40F4BF2B11F460FF04C0B8
:100B40006F5F7F4F8F4F9F4F089557FD9058440F11
:100B5000551F59F05F3F71F04795880F97FB991F1C
:100B600061F09F3F79F087950895121613061406D9
:100B7000551FF2CF4695F1DF08C016161706180666
:100B8000991FF1CF86957105610508940895E89441
:100B9000BB2766277727CB0197F9089597FB072E88
:100BA00016F4009407D077FD09D00E94E20507FCF7
:100BB00005D03EF4909581959F4F0895709561956D
:100BC0007F4F0895AA1BBB1B51E107C0AA1FBB1F83
:100BD000A617B70710F0A61BB70B881F991F5A95C9
:100BE000A9F780959095BC01CD0108954532510536
:100BF00020F4423010F00C940106FB011082CB016E
:100C00000895BB274A3031F4992322F4BDE2909530
:100C100081959F4F0C940D06BB27FB015527AA27F2
:100C2000880F991FAA1FA41710F0A41B8395505179
:100C3000B9F7A05DAA3308F0A95DA193009779F7F1
:100C4000B111B1931192CB010C942606DC01FC0189
:100C5000672F71917723E1F7329704C07C916D93F0
:100C600070836291AE17BF07C8F30895F894FFCF61
:100C700020303D2B3132332D3435362A3738392F59
:100C8000496E76616C6964204F7065726174696F3A
:020C90006E00F4
:00000001FF
